:1000000000800020BD010000955900004D590000FE
:100010004D5900004D5900004D5900004D59000048
:100020004D5900004D5900004D59000095590000F0
:10003000955900004D5900007D6B0000816C000057
:1000400095590000955900009559000095590000F8
:1000500095590000955900009559000095590000E8
:1000600095590000955900009559000095590000D8
:1000700095590000955900009559000095590000C8
:1000800095590000955900009559000095590000B8
:1000900095590000955900009559000095590000A8
:1000A0009559000095590000955900009559000098
:1000B0009559000095590000955900009559000088
:1000C0009559000095590000955900009559000078
:1000D0009559000095590000955900009559000068
:1000E0009559000095590000955900009559000058
:1000F0009559000095590000955900009559000048
:100100009559000095590000955900009559000037
:100110009559000095590000955900009559000027
:100120009559000095590000955900009559000017
:100130009559000095590000955900009559000007
:1001400095590000955900009559000095590000F7
:1001500095590000955900009559000095590000E7
:1001600095590000315E0000955900009559000036
:1001700095590000955900009559000095590000C7
:1001800095590000955900009559000095590000B7
:1001900095590000955900009559000095590000A7
:1001A0009559000095590000955900009559000097
:1001B000955900009559000095590000564B4CF296
:1001C000205210B51A804DF628121A8000BF00BFC9
:1001D00005F0E4FB514B4FF010621A60504A9A60F0
:1001E000504ADA60504A136813F4807304D14F49BF
:1001F0000B604FF4A85313604D4B1A78110703D5C9
:100200001A7842F008021A704A4B4B492A221A7097
:100210004A4A4B4B8B4204D252F8040F43F8040B6A
:10022000F8E7484B484900228B4202D243F8042B9E
:10023000FAE74649464A002352F8230041F82300D2
:1002400001336F2BF8D1434B434A802103F8011B44
:100250009342FBD1414B3D4A1A60414B8A221A70AE
:10026000A3F5805324225A70A0221A709A7992071B
:10027000FCD59A79D406FCD43A4A937903F00C035E
:10028000082B384BF9D103221A7140225A719A79FE
:100290009006FCD5334A9179324B4906FBD5324A58
:1002A000324911600221516020221A709A7902F0BD
:1002B0000C020C2AFAD12E4B2E4A1A602E4B2F4AD2
:1002C0001A6000225A60072243F8042C2C4AC3F813
:1002D0000C2D62B605F084FC144B1B68DA0705D5BB
:1002E000284805F0E1FB284B284A1A60284B1B7868
:1002F0005B0609D5244C254B22689A4204D121483B
:1003000005F0D2FB0023236007F000FB05F04CFB57
:1003100006F04AFEFEE700BF0E2005403080044094
:10032000823F04000100002B10D0034014D0034092
:1003300002D0074000E00740F891FF1F189100002D
:100340002087FF1FF891FF1FE8A5FF1F0082FF1FF6
:100350000000000000E400E05FE400E008ED00E0E1
:100360000050064000400640448004400000030165
:1003700004800440C010050014E000E0FF76010096
:1003800000002020FEE0645A1CE00340A5C3945AFC
:1003900000F00740FFFFFFFFFFFFFFFFFFFFFFFF32
:1003A000FFFFFFFFFFFFFFFFFFFFFFFFFFFFFFFF5D
:1003B000FFFFFFFFFFFFFFFFFFFFFFFFFFFFFFFF4D
:1003C000FFFFFFFFFFFFFFFFFFFFFFFFFFFFFFFF3D
:1003D000FFFFFFFFFFFFFFFFFFFFFFFFFFFFFFFF2D
:1003E000FFFFFFFFFFFFFFFFFFFFFFFFFFFFFFFF1D
:1003F000FFFFFFFFFFFFFFFFFFFFFFFFFFFFFFFF0D
:10040000FFFFFFFFFFFFFFFFFFFFFFFFDEF9FFFF23
:1004100010B5054C237833B9044B13B10448AFF33E
:1004200000800123237010BDF891FF1F0000000021
:100430001C910000084B10B51BB108490848AFF3E8
:1004400000800848036803B910BD074B002BFBD0A0
:10045000BDE81040184700BF00000000FC91FF1FDE
:100460001C910000F891FF1F0000000040697047D8
:10047000002070474FF4C870704700BF4FF4C87039
:10048000704700BF4FF4C870704700BF4FF4C8708A
:10049000704700BF4FF4C870704700BF4FF4C8707A
:1004A000704700BF4FF4C870704700BF10B50121FE
:1004B0000446152005F01EFB4022024BA261E361B9
:1004C00010BD00BFC0F00F4010B50121044606204A
:1004D00005F010FB1022024BA261E36110BD00BFCA
:1004E000C0F00F4010B501210446142005F002FBB6
:1004F0002022024BA261E36110BD00BFC0F00F409B
:1005000010B501210446082005F0F4FA0822024B38
:10051000A261E36110BD00BFC0F00F4010B5012122
:100520000446072005F0E6FA0422024BA261E361CB
:1005300010BD00BFC0F00F4010B5012104460E20D1
:1005400005F0D8FA0222024BA261E36110BD00BFA0
:10055000C0F00F4010B501210446022005F0CAFA90
:100560000122024BA261E36110BD00BFC0F00F4049
:10057000F0B58BB0002305688DF804308DF8053098
:100580008DF806302E68374A8DF8083096428DF87F
:1005900009308DF80A305FD1827C04910446012A2B
:1005A00001A805918DF81E308DF81F308DF8203090
:1005B000039015D08DF81D308DF81C308DF81B3050
:1005C0008DF81A308DF819308DF818300023AA698B
:1005D0008DF821302046099303A990470BB0F0BD58
:1005E000214A1378013303F0070313F0010F14BFFE
:1005F0008021002113709A0744BF41F04001C9B225
:100600005B0748BF41F0200110310022C9B20DF153
:100610001B030DF11E074FF4807EAAB19EFBF2F280
:10062000D2B2501CC0B200FB01152D121870EEB2F0
:1006300005B1013E03F8036C00B11A7001339F420B
:1006400008D0DA78002AE9D11A7003F8032C0133B4
:100650009F42F6D12568B9E70A4602AB01A9B04727
:100660000BB0F0BD6D0600001492FF1FF0B5857C45
:100670001C785E789B7889B0012D019102920392DB
:100680008DF816408DF817608DF8183016D00023BD
:100690008DF815308DF814308DF813308DF8123038
:1006A0008DF811308DF810300268002392698DF8B2
:1006B0001930079301A9904709B0F0BD1B4A137880
:1006C000013303F0070313F0010F137014BF8022EE
:1006D0000022990744BF42F04002D2B25B0748BFF4
:1006E00042F020021032D2B20DF113030DF11607C1
:1006F0004FF4807EACB19EFBF4F4E4B2611CC9B24D
:1007000001FB02252D121970EEB205B1013E03F86E
:10071000036C01B11C700133BB42C5D0DC78002CE6
:10072000E9D11C7003F8034CF5E700BF1492FF1FDA
:10073000F0B5857C1C785E789B7889B0012D01919D
:10074000029203928DF816408DF817608DF81830DC
:1007500017D000238DF815308DF814308DF8133034
:100760008DF812308DF811308DF8103003680022AA
:1007700003219B698DF81910079201A9984709B0C8
:10078000F0BD1B4A1378013303F0070313F0010F88
:10079000137014BF80220022990744BF42F0400228
:1007A000D2B25B0748BF42F020021032D2B20DF144
:1007B00013030DF116074FF4807EACB19EFBF4F4E9
:1007C000E4B2611CC9B201FB02252D121970EEB210
:1007D00005B1013E03F8036C01B11C700133BB424B
:1007E000C4D0DC78002CE9D11C7003F8034CF5E789
:1007F0001492FF1F2DE9F04F8BB004460990089129
:1008000005F07EF9238CC01A83B2312BF8D9089CED
:100810009E4AE07B13680290207C657C0190204614
:10082000667BD4F8008094F80C9094F80EA00395A1
:10083000A77CE57C94F814E0954994F9154004945C
:1008400043F08073D0F804B013600A689148924B6B
:1008500042F001020A60002202601A681A680198D8
:1008600022F040021A6098F80140861B5FFA86FC6D
:10087000002C40F057826B1C059372B6854B1968AB
:10088000BBF1000F01F17C0140F3BB807A1C0692A2
:1008900081480EF1010207921F46029AC9EB020934
:1008A000019ACCEB020C039ACAEB020A5FFA89F9AF
:1008B0005FFA8CFC5FFA8AFA72B61A688A4205D926
:1008C0001A68521AB2F5935F00F2E880056806686C
:1008D00045F0400526F040064FF0070E1A688A42A0
:1008E000FCD339680560220601F17C0100F1958096
:1008F0001A688A1A652AFBD86400BEF1010E0660E8
:10090000E4B2EBD11A689142FCD83968056024063C
:1009100001F17C0100F18B801A688A1A652AFBD8E4
:10092000066098F800403CB184FA59F4069AE4B2A3
:1009300004FB02F4C4F307244FF0070E1A68914237
:10094000FCD839680560220601F17C0179D41A6867
:100950008A1A652AFBD86400BEF1010E0660E4B273
:10096000ECD11A689142FCD839680560240601F17F
:100970007C016FD41A688A1A652AFBD8066098F839
:1009800002403CB184FA5AF4079AE4B204FB02F440
:10099000C4F307244FF0070E1A688A42FCD3396863
:1009A0000560220601F17C015DD41A688A1A652A65
:1009B000FBD86400BEF1010E0660E4B2ECD11A6807
:1009C0009142FCD839680560240601F17C0153D4BA
:1009D0001A688A1A652AFBD8049A066090440BF1BB
:1009E000FF3B98F801403CB184FA5CF4059AE4B20C
:1009F00002FB04F4C4F3072462B6BBF1000F7FF4DA
:100A00004CAF62B6234B1B68002B48D005F078F83A
:100A1000099B18840BB0BDE8F08F1A688A1A462A21
:100A20007FF66AAF1A688A1A462AF6D864E71A6807
:100A30008A1A462A7FF674AF1A688A1A462AF6D8A6
:100A40006EE71A688A1A462A85D91A688A1A462AC7
:100A5000F7D880E71A688A1A462A8FD91A688A1A3C
:100A6000462AF7D88AE71A688A1A462AA1D91A6844
:100A70008A1A462AF7D89CE71A688A1A462AABD9F6
:100A80001A688A1A462AF7D8A6E700BFFCED00E0EC
:100A9000001000E0041000E0C0F00F4062B662B643
:100AA0004FF4C863013BFDD172B6089FA54AF97B9C
:100AB00013687E7C02913C46397C94F915E0089CD1
:100AC000A1487D7B019143F08073D7F8008097F8AF
:100AD0000CA097F80E900396F97CBE7CCDF810E040
:100AE0003F7DD4F804B013600268984C984B42F0F4
:100AF00001020260002222601A681A6822F0400295
:100B00001A60019B98F801405D1B5FFA85FC002C80
:100B100000F0128184FA5CF4E3B24A1C02FB03F396
:100B20000592C3F3072472B6884B1968BBF1000F16
:100B300001F17C0140F3BA80721C069284487A1C51
:100B400007921F46029ACAEB020A019ACCEB020CEA
:100B5000039AC9EB02095FFA8AFA5FFA8CFC5FFA22
:100B600089F972B61A688A4205D91A68521AB2F51A
:100B7000935F00F2E4800668056846F0400625F0C1
:100B800040054FF0070E1A688A42FCD339680660A8
:100B9000220601F17C0100F18D801A688A1A652A0B
:100BA000FBD86400BEF1010E0560E4B2EBD11A6817
:100BB0009142FCD839680660240601F17C0100F1FD
:100BC00083801A688A1A652AFBD8056098F8004065
:100BD0003CB184FA5AF4069AE4B204FB02F4C4F37A
:100BE00007244FF0070E1A688A42FCD33968066062
:100BF000220601F17C0171D41A688A1A652AFBD891
:100C00006400BEF1010E0560E4B2ECD11A689142B5
:100C1000FCD839680660240601F17C0167D41A68A3
:100C20008A1A652AFBD8056098F802403CB184FA1C
:100C300059F4079AE4B204FB02F4C4F307244FF01A
:100C4000070E1A688A42FCD339680660220601F151
:100C50007C0155D41A688A1A652AFBD86400BEF153
:100C6000010E0560E4B2ECD11A689142FCD83968F3
:100C70000660220601F17C014BD41A688A1A652AA3
:100C8000FBD8049A056090440BF1FF3B98F80140B3
:100C90003CB184FA5CF4059AE4B202FB04F4C4F3B8
:100CA000072462B6BBF1000F7FF44CAF62B6274B4E
:100CB0001B68ABE61A688A1A462A7FF672AF1A6872
:100CC0008A1A462AF6D86CE71A688A1A462A7FF6E4
:100CD0007CAF1A688A1A462AF6D876E71A688A1A02
:100CE000462A8DD91A688A1A462AF7D888E71A68D8
:100CF0008A1A462A97D91A688A1A462AF7D892E792
:100D00001A688A1A462AA9D91A688A1A462AF7D866
:100D1000A4E71A688A1A462AB3D91A688A1A462A90
:100D2000F7D8AEE784FA5CF4E3B26A1C02FB03F383
:100D30000592C3F30724A0E54B1C0593F3E662B6C6
:100D400064E600BFFCED00E0001000E0041000E0ED
:100D5000C0F00F402DE9F04F8BB004460990089188
:100D600004F0CEFE238CC01A83B2312BF8D9089C34
:100D70009E4AE07B13680290207C657C01902046AF
:100D8000667BD4F8008094F80C9094F80EA003953C
:100D9000A77CE57C94F814E0954994F915400494F7
:100DA00043F08073D0F804B013600A689148924B06
:100DB00042F001020A60002202601A681A68019873
:100DC00022F002021A6098F80140861B5FFA86FC46
:100DD000002C40F057826B1C059372B6854B196846
:100DE000BBF1000F01F17C0140F3BB807A1C06923D
:100DF00081480EF1010207921F46029AC9EB0209CF
:100E0000019ACCEB020C039ACAEB020A5FFA89F949
:100E10005FFA8CFC5FFA8AFA72B61A688A4205D9C0
:100E20001A68521AB2F5935F00F2E8800568066806
:100E300045F0020526F002064FF0070E1A688A42B6
:100E4000FCD339680560220601F17C0100F1958030
:100E50001A688A1A652AFBD86400BEF1010E066082
:100E6000E4B2EBD11A689142FCD8396805602406D7
:100E700001F17C0100F18B801A688A1A652AFBD87F
:100E8000066098F800403CB184FA59F4069AE4B23E
:100E900004FB02F4C4F307244FF0070E1A689142D2
:100EA000FCD839680560220601F17C0179D41A6802
:100EB0008A1A652AFBD86400BEF1010E0660E4B20E
:100EC000ECD11A689142FCD839680560240601F11A
:100ED0007C016FD41A688A1A652AFBD8066098F8D4
:100EE00002403CB184FA5AF4079AE4B204FB02F4DB
:100EF000C4F307244FF0070E1A688A42FCD33968FE
:100F00000560220601F17C015DD41A688A1A652AFF
:100F1000FBD86400BEF1010E0660E4B2ECD11A68A1
:100F20009142FCD839680560240601F17C0153D454
:100F30001A688A1A652AFBD8049A066090440BF155
:100F4000FF3B98F801403CB184FA5CF4059AE4B2A6
:100F500002FB04F4C4F3072462B6BBF1000F7FF474
:100F60004CAF62B6234B1B68002B48D004F0C8FD81
:100F7000099B18840BB0BDE8F08F1A688A1A462ABC
:100F80007FF66AAF1A688A1A462AF6D864E71A68A2
:100F90008A1A462A7FF674AF1A688A1A462AF6D841
:100FA0006EE71A688A1A462A85D91A688A1A462A62
:100FB000F7D880E71A688A1A462A8FD91A688A1AD7
:100FC000462AF7D88AE71A688A1A462AA1D91A68DF
:100FD0008A1A462AF7D89CE71A688A1A462AABD991
:100FE0001A688A1A462AF7D8A6E700BFFCED00E087
:100FF000001000E0041000E0C0F00F4062B662B6DE
:101000004FF4C863013BFDD172B6089FA54AF97B36
:1010100013687E7C02913C46397C94F915E0089C6B
:10102000A1487D7B019143F08073D7F8008097F849
:101030000CA097F80E900396F97CBE7CCDF810E0DA
:101040003F7DD4F804B013600268984C984B42F08E
:1010500001020260002222601A681A6822F002026D
:101060001A60019B98F801405D1B5FFA85FC002C1B
:1010700000F0128184FA5CF4E3B24A1C02FB03F331
:101080000592C3F3072472B6884B1968BBF1000FB1
:1010900001F17C0140F3BA80721C069284487A1CEC
:1010A00007921F46029ACAEB020A019ACCEB020C85
:1010B000039AC9EB02095FFA8AFA5FFA8CFC5FFABD
:1010C00089F972B61A688A4205D91A68521AB2F5B5
:1010D000935F00F2E4800668056846F0020625F09A
:1010E00002054FF0070E1A688A42FCD33968066081
:1010F000220601F17C0100F18D801A688A1A652AA6
:10110000FBD86400BEF1010E0560E4B2EBD11A68B1
:101110009142FCD839680660240601F17C0100F197
:1011200083801A688A1A652AFBD8056098F80040FF
:101130003CB184FA5AF4069AE4B204FB02F4C4F314
:1011400007244FF0070E1A688A42FCD339680660FC
:10115000220601F17C0171D41A688A1A652AFBD82B
:101160006400BEF1010E0560E4B2ECD11A68914250
:10117000FCD839680660240601F17C0167D41A683E
:101180008A1A652AFBD8056098F802403CB184FAB7
:1011900059F4079AE4B204FB02F4C4F307244FF0B5
:1011A000070E1A688A42FCD339680660220601F1EC
:1011B0007C0155D41A688A1A652AFBD86400BEF1EE
:1011C000010E0560E4B2ECD11A689142FCD839688E
:1011D0000660220601F17C014BD41A688A1A652A3E
:1011E000FBD8049A056090440BF1FF3B98F801404E
:1011F0003CB184FA5CF4059AE4B202FB04F4C4F353
:10120000072462B6BBF1000F7FF44CAF62B6274BE8
:101210001B68ABE61A688A1A462A7FF672AF1A680C
:101220008A1A462AF6D86CE71A688A1A462A7FF67E
:101230007CAF1A688A1A462AF6D876E71A688A1A9C
:10124000462A8DD91A688A1A462AF7D888E71A6872
:101250008A1A462A97D91A688A1A462AF7D892E72C
:101260001A688A1A462AA9D91A688A1A462AF7D801
:10127000A4E71A688A1A462AB3D91A688A1A462A2B
:10128000F7D8AEE784FA5CF4E3B26A1C02FB03F31E
:101290000592C3F30724A0E54B1C0593F3E662B661
:1012A00064E600BFFCED00E0001000E0041000E088
:1012B000C0F00F402DE9F04F8BB004460990089123
:1012C00004F01EFC238CC01A83B2312BF8D9089C81
:1012D0009E4AE07B13680290207C657C019020464A
:1012E000667BD4F8008094F80C9094F80EA00395D7
:1012F000A77CE57C94F814E0954994F91540049492
:1013000043F08073D0F804B013600A689148924BA0
:1013100042F001020A60002202601A681A6801980D
:1013200022F001021A6098F80140861B5FFA86FCE1
:10133000002C40F057826B1C059372B6854B1968E0
:10134000BBF1000F01F17C0140F3BB807A1C0692D7
:1013500081480EF1010207921F46029AC9EB020969
:10136000019ACCEB020C039ACAEB020A5FFA89F9E4
:101370005FFA8CFC5FFA8AFA72B61A688A4205D95B
:101380001A68521AB2F5935F00F2E88005680668A1
:1013900045F0010526F001064FF0070E1A688A4253
:1013A000FCD339680560220601F17C0100F19580CB
:1013B0001A688A1A652AFBD86400BEF1010E06601D
:1013C000E4B2EBD11A689142FCD839680560240672
:1013D00001F17C0100F18B801A688A1A652AFBD81A
:1013E000066098F800403CB184FA59F4069AE4B2D9
:1013F00004FB02F4C4F307244FF0070E1A6891426D
:10140000FCD839680560220601F17C0179D41A689C
:101410008A1A652AFBD86400BEF1010E0660E4B2A8
:10142000ECD11A689142FCD839680560240601F1B4
:101430007C016FD41A688A1A652AFBD8066098F86E
:1014400002403CB184FA5AF4079AE4B204FB02F475
:10145000C4F307244FF0070E1A688A42FCD3396898
:101460000560220601F17C015DD41A688A1A652A9A
:10147000FBD86400BEF1010E0660E4B2ECD11A683C
:101480009142FCD839680560240601F17C0153D4EF
:101490001A688A1A652AFBD8049A066090440BF1F0
:1014A000FF3B98F801403CB184FA5CF4059AE4B241
:1014B00002FB04F4C4F3072462B6BBF1000F7FF40F
:1014C0004CAF62B6234B1B68002B48D004F018FBCE
:1014D000099B18840BB0BDE8F08F1A688A1A462A57
:1014E0007FF66AAF1A688A1A462AF6D864E71A683D
:1014F0008A1A462A7FF674AF1A688A1A462AF6D8DC
:101500006EE71A688A1A462A85D91A688A1A462AFC
:10151000F7D880E71A688A1A462A8FD91A688A1A71
:10152000462AF7D88AE71A688A1A462AA1D91A6879
:101530008A1A462AF7D89CE71A688A1A462AABD92B
:101540001A688A1A462AF7D8A6E700BFFCED00E021
:10155000001000E0041000E0C0F00F4062B662B678
:101560004FF4C863013BFDD172B6089FA54AF97BD1
:1015700013687E7C02913C46397C94F915E0089C06
:10158000A1487D7B019143F08073D7F8008097F8E4
:101590000CA097F80E900396F97CBE7CCDF810E075
:1015A0003F7DD4F804B013600268984C984B42F029
:1015B00001020260002222601A681A6822F0010209
:1015C0001A60019B98F801405D1B5FFA85FC002CB6
:1015D00000F0128184FA5CF4E3B24A1C02FB03F3CC
:1015E0000592C3F3072472B6884B1968BBF1000F4C
:1015F00001F17C0140F3BA80721C069284487A1C87
:1016000007921F46029ACAEB020A019ACCEB020C1F
:10161000039AC9EB02095FFA8AFA5FFA8CFC5FFA57
:1016200089F972B61A688A4205D91A68521AB2F54F
:10163000935F00F2E4800668056846F0010625F035
:1016400001054FF0070E1A688A42FCD3396806601C
:10165000220601F17C0100F18D801A688A1A652A40
:10166000FBD86400BEF1010E0560E4B2EBD11A684C
:101670009142FCD839680660240601F17C0100F132
:1016800083801A688A1A652AFBD8056098F800409A
:101690003CB184FA5AF4069AE4B204FB02F4C4F3AF
:1016A00007244FF0070E1A688A42FCD33968066097
:1016B000220601F17C0171D41A688A1A652AFBD8C6
:1016C0006400BEF1010E0560E4B2ECD11A689142EB
:1016D000FCD839680660240601F17C0167D41A68D9
:1016E0008A1A652AFBD8056098F802403CB184FA52
:1016F00059F4079AE4B204FB02F4C4F307244FF050
:10170000070E1A688A42FCD339680660220601F186
:101710007C0155D41A688A1A652AFBD86400BEF188
:10172000010E0560E4B2ECD11A689142FCD8396828
:101730000660220601F17C014BD41A688A1A652AD8
:10174000FBD8049A056090440BF1FF3B98F80140E8
:101750003CB184FA5CF4059AE4B202FB04F4C4F3ED
:10176000072462B6BBF1000F7FF44CAF62B6274B83
:101770001B68ABE61A688A1A462A7FF672AF1A68A7
:101780008A1A462AF6D86CE71A688A1A462A7FF619
:101790007CAF1A688A1A462AF6D876E71A688A1A37
:1017A000462A8DD91A688A1A462AF7D888E71A680D
:1017B0008A1A462A97D91A688A1A462AF7D892E7C7
:1017C0001A688A1A462AA9D91A688A1A462AF7D89C
:1017D000A4E71A688A1A462AB3D91A688A1A462AC6
:1017E000F7D8AEE784FA5CF4E3B26A1C02FB03F3B9
:1017F0000592C3F30724A0E54B1C0593F3E662B6FC
:1018000064E600BFFCED00E0001000E0041000E022
:10181000C0F00F402DE9F04F8BB0044609900891BD
:1018200004F06EF9238CC01A83B2312BF8D9089CCE
:101830009E4AE07B13680290207C657C01902046E4
:10184000667BD4F8008094F80C9094F80EA0039571
:10185000A77CE57C94F814E0954994F9154004942C
:1018600043F08073D0F804B013600A689148924B3B
:1018700042F001020A60002202601A681A680198A8
:1018800022F010021A6098F80140861B5FFA86FC6D
:10189000002C40F057826B1C059372B6854B19687B
:1018A000BBF1000F01F17C0140F3BB807A1C069272
:1018B00081480EF1010207921F46029AC9EB020904
:1018C000019ACCEB020C039ACAEB020A5FFA89F97F
:1018D0005FFA8CFC5FFA8AFA72B61A688A4205D9F6
:1018E0001A68521AB2F5935F00F2E880056806683C
:1018F00045F0100526F010064FF0070E1A688A42D0
:10190000FCD339680560220601F17C0100F1958065
:101910001A688A1A652AFBD86400BEF1010E0660B7
:10192000E4B2EBD11A689142FCD83968056024060C
:1019300001F17C0100F18B801A688A1A652AFBD8B4
:10194000066098F800403CB184FA59F4069AE4B273
:1019500004FB02F4C4F307244FF0070E1A68914207
:10196000FCD839680560220601F17C0179D41A6837
:101970008A1A652AFBD86400BEF1010E0660E4B243
:10198000ECD11A689142FCD839680560240601F14F
:101990007C016FD41A688A1A652AFBD8066098F809
:1019A00002403CB184FA5AF4079AE4B204FB02F410
:1019B000C4F307244FF0070E1A688A42FCD3396833
:1019C0000560220601F17C015DD41A688A1A652A35
:1019D000FBD86400BEF1010E0660E4B2ECD11A68D7
:1019E0009142FCD839680560240601F17C0153D48A
:1019F0001A688A1A652AFBD8049A066090440BF18B
:101A0000FF3B98F801403CB184FA5CF4059AE4B2DB
:101A100002FB04F4C4F3072462B6BBF1000F7FF4A9
:101A20004CAF62B6234B1B68002B48D004F068F81B
:101A3000099B18840BB0BDE8F08F1A688A1A462AF1
:101A40007FF66AAF1A688A1A462AF6D864E71A68D7
:101A50008A1A462A7FF674AF1A688A1A462AF6D876
:101A60006EE71A688A1A462A85D91A688A1A462A97
:101A7000F7D880E71A688A1A462A8FD91A688A1A0C
:101A8000462AF7D88AE71A688A1A462AA1D91A6814
:101A90008A1A462AF7D89CE71A688A1A462AABD9C6
:101AA0001A688A1A462AF7D8A6E700BFFCED00E0BC
:101AB000001000E0041000E0C0F00F4062B662B613
:101AC0004FF4C863013BFDD172B6089FA54AF97B6C
:101AD00013687E7C02913C46397C94F915E0089CA1
:101AE000A1487D7B019143F08073D7F8008097F87F
:101AF0000CA097F80E900396F97CBE7CCDF810E010
:101B00003F7DD4F804B013600268984C984B42F0C3
:101B100001020260002222601A681A6822F0100294
:101B20001A60019B98F801405D1B5FFA85FC002C50
:101B300000F0128184FA5CF4E3B24A1C02FB03F366
:101B40000592C3F3072472B6884B1968BBF1000FE6
:101B500001F17C0140F3BA80721C069284487A1C21
:101B600007921F46029ACAEB020A019ACCEB020CBA
:101B7000039AC9EB02095FFA8AFA5FFA8CFC5FFAF2
:101B800089F972B61A688A4205D91A68521AB2F5EA
:101B9000935F00F2E4800668056846F0100625F0C1
:101BA00010054FF0070E1A688A42FCD339680660A8
:101BB000220601F17C0100F18D801A688A1A652ADB
:101BC000FBD86400BEF1010E0560E4B2EBD11A68E7
:101BD0009142FCD839680660240601F17C0100F1CD
:101BE00083801A688A1A652AFBD8056098F8004035
:101BF0003CB184FA5AF4069AE4B204FB02F4C4F34A
:101C000007244FF0070E1A688A42FCD33968066031
:101C1000220601F17C0171D41A688A1A652AFBD860
:101C20006400BEF1010E0560E4B2ECD11A68914285
:101C3000FCD839680660240601F17C0167D41A6873
:101C40008A1A652AFBD8056098F802403CB184FAEC
:101C500059F4079AE4B204FB02F4C4F307244FF0EA
:101C6000070E1A688A42FCD339680660220601F121
:101C70007C0155D41A688A1A652AFBD86400BEF123
:101C8000010E0560E4B2ECD11A689142FCD83968C3
:101C90000660220601F17C014BD41A688A1A652A73
:101CA000FBD8049A056090440BF1FF3B98F8014083
:101CB0003CB184FA5CF4059AE4B202FB04F4C4F388
:101CC000072462B6BBF1000F7FF44CAF62B6274B1E
:101CD0001B68ABE61A688A1A462A7FF672AF1A6842
:101CE0008A1A462AF6D86CE71A688A1A462A7FF6B4
:101CF0007CAF1A688A1A462AF6D876E71A688A1AD2
:101D0000462A8DD91A688A1A462AF7D888E71A68A7
:101D10008A1A462A97D91A688A1A462AF7D892E761
:101D20001A688A1A462AA9D91A688A1A462AF7D836
:101D3000A4E71A688A1A462AB3D91A688A1A462A60
:101D4000F7D8AEE784FA5CF4E3B26A1C02FB03F353
:101D50000592C3F30724A0E54B1C0593F3E662B696
:101D600064E600BFFCED00E0001000E0041000E0BD
:101D7000C0F00F402DE9F04F8BB004460990089158
:101D800003F0BEFE238CC01A83B2312BF8D9089C15
:101D90009E4AE07B13680290207C657C019020467F
:101DA000667BD4F8008094F80C9094F80EA003950C
:101DB000A77CE57C94F814E0954994F915400494C7
:101DC00043F08073D0F804B013600A689148924BD6
:101DD00042F001020A60002202601A681A68019843
:101DE00022F020021A6098F80140861B5FFA86FCF8
:101DF000002C40F057826B1C059372B6854B196816
:101E0000BBF1000F01F17C0140F3BB807A1C06920C
:101E100081480EF1010207921F46029AC9EB02099E
:101E2000019ACCEB020C039ACAEB020A5FFA89F919
:101E30005FFA8CFC5FFA8AFA72B61A688A4205D990
:101E40001A68521AB2F5935F00F2E88005680668D6
:101E500045F0200526F020064FF0070E1A688A424A
:101E6000FCD339680560220601F17C0100F1958000
:101E70001A688A1A652AFBD86400BEF1010E066052
:101E8000E4B2EBD11A689142FCD8396805602406A7
:101E900001F17C0100F18B801A688A1A652AFBD84F
:101EA000066098F800403CB184FA59F4069AE4B20E
:101EB00004FB02F4C4F307244FF0070E1A689142A2
:101EC000FCD839680560220601F17C0179D41A68D2
:101ED0008A1A652AFBD86400BEF1010E0660E4B2DE
:101EE000ECD11A689142FCD839680560240601F1EA
:101EF0007C016FD41A688A1A652AFBD8066098F8A4
:101F000002403CB184FA5AF4079AE4B204FB02F4AA
:101F1000C4F307244FF0070E1A688A42FCD33968CD
:101F20000560220601F17C015DD41A688A1A652ACF
:101F3000FBD86400BEF1010E0660E4B2ECD11A6871
:101F40009142FCD839680560240601F17C0153D424
:101F50001A688A1A652AFBD8049A066090440BF125
:101F6000FF3B98F801403CB184FA5CF4059AE4B276
:101F700002FB04F4C4F3072462B6BBF1000F7FF444
:101F80004CAF62B6234B1B68002B48D003F0B8FD62
:101F9000099B18840BB0BDE8F08F1A688A1A462A8C
:101FA0007FF66AAF1A688A1A462AF6D864E71A6872
:101FB0008A1A462A7FF674AF1A688A1A462AF6D811
:101FC0006EE71A688A1A462A85D91A688A1A462A32
:101FD000F7D880E71A688A1A462A8FD91A688A1AA7
:101FE000462AF7D88AE71A688A1A462AA1D91A68AF
:101FF0008A1A462AF7D89CE71A688A1A462AABD961
:102000001A688A1A462AF7D8A6E700BFFCED00E056
:10201000001000E0041000E0C0F00F4062B662B6AD
:102020004FF4C863013BFDD172B6089FA54AF97B06
:1020300013687E7C02913C46397C94F915E0089C3B
:10204000A1487D7B019143F08073D7F8008097F819
:102050000CA097F80E900396F97CBE7CCDF810E0AA
:102060003F7DD4F804B013600268984C984B42F05E
:1020700001020260002222601A681A6822F020021F
:102080001A60019B98F801405D1B5FFA85FC002CEB
:1020900000F0128184FA5CF4E3B24A1C02FB03F301
:1020A0000592C3F3072472B6884B1968BBF1000F81
:1020B00001F17C0140F3BA80721C069284487A1CBC
:1020C00007921F46029ACAEB020A019ACCEB020C55
:1020D000039AC9EB02095FFA8AFA5FFA8CFC5FFA8D
:1020E00089F972B61A688A4205D91A68521AB2F585
:1020F000935F00F2E4800668056846F0200625F04C
:1021000020054FF0070E1A688A42FCD33968066032
:10211000220601F17C0100F18D801A688A1A652A75
:10212000FBD86400BEF1010E0560E4B2EBD11A6881
:102130009142FCD839680660240601F17C0100F167
:1021400083801A688A1A652AFBD8056098F80040CF
:102150003CB184FA5AF4069AE4B204FB02F4C4F3E4
:1021600007244FF0070E1A688A42FCD339680660CC
:10217000220601F17C0171D41A688A1A652AFBD8FB
:102180006400BEF1010E0560E4B2ECD11A68914220
:10219000FCD839680660240601F17C0167D41A680E
:1021A0008A1A652AFBD8056098F802403CB184FA87
:1021B00059F4079AE4B204FB02F4C4F307244FF085
:1021C000070E1A688A42FCD339680660220601F1BC
:1021D0007C0155D41A688A1A652AFBD86400BEF1BE
:1021E000010E0560E4B2ECD11A689142FCD839685E
:1021F0000660220601F17C014BD41A688A1A652A0E
:10220000FBD8049A056090440BF1FF3B98F801401D
:102210003CB184FA5CF4059AE4B202FB04F4C4F322
:10222000072462B6BBF1000F7FF44CAF62B6274BB8
:102230001B68ABE61A688A1A462A7FF672AF1A68DC
:102240008A1A462AF6D86CE71A688A1A462A7FF64E
:102250007CAF1A688A1A462AF6D876E71A688A1A6C
:10226000462A8DD91A688A1A462AF7D888E71A6842
:102270008A1A462A97D91A688A1A462AF7D892E7FC
:102280001A688A1A462AA9D91A688A1A462AF7D8D1
:10229000A4E71A688A1A462AB3D91A688A1A462AFB
:1022A000F7D8AEE784FA5CF4E3B26A1C02FB03F3EE
:1022B0000592C3F30724A0E54B1C0593F3E662B631
:1022C00064E600BFFCED00E0001000E0041000E058
:1022D000C0F00F402DE9F04F8BB0044609900891F3
:1022E00003F00EFC238CC01A83B2312BF8D9089C62
:1022F0009E4AE07B13680290207C657C019020461A
:10230000667BD4F8008094F80C9094F80EA00395A6
:10231000A77CE57C94F814E0954994F91540049461
:1023200043F08073D0F804B013600A689148924B70
:1023300042F001020A60002202601A681A680198DD
:1023400022F008021A6098F80140861B5FFA86FCAA
:10235000002C40F057826B1C059372B6854B1968B0
:10236000BBF1000F01F17C0140F3BB807A1C0692A7
:1023700081480EF1010207921F46029AC9EB020939
:10238000019ACCEB020C039ACAEB020A5FFA89F9B4
:102390005FFA8CFC5FFA8AFA72B61A688A4205D92B
:1023A0001A68521AB2F5935F00F2E8800568066871
:1023B00045F0080526F008064FF0070E1A688A4215
:1023C000FCD339680560220601F17C0100F195809B
:1023D0001A688A1A652AFBD86400BEF1010E0660ED
:1023E000E4B2EBD11A689142FCD839680560240642
:1023F00001F17C0100F18B801A688A1A652AFBD8EA
:10240000066098F800403CB184FA59F4069AE4B2A8
:1024100004FB02F4C4F307244FF0070E1A6891423C
:10242000FCD839680560220601F17C0179D41A686C
:102430008A1A652AFBD86400BEF1010E0660E4B278
:10244000ECD11A689142FCD839680560240601F184
:102450007C016FD41A688A1A652AFBD8066098F83E
:1024600002403CB184FA5AF4079AE4B204FB02F445
:10247000C4F307244FF0070E1A688A42FCD3396868
:102480000560220601F17C015DD41A688A1A652A6A
:10249000FBD86400BEF1010E0660E4B2ECD11A680C
:1024A0009142FCD839680560240601F17C0153D4BF
:1024B0001A688A1A652AFBD8049A066090440BF1C0
:1024C000FF3B98F801403CB184FA5CF4059AE4B211
:1024D00002FB04F4C4F3072462B6BBF1000F7FF4DF
:1024E0004CAF62B6234B1B68002B48D003F008FBAF
:1024F000099B18840BB0BDE8F08F1A688A1A462A27
:102500007FF66AAF1A688A1A462AF6D864E71A680C
:102510008A1A462A7FF674AF1A688A1A462AF6D8AB
:102520006EE71A688A1A462A85D91A688A1A462ACC
:10253000F7D880E71A688A1A462A8FD91A688A1A41
:10254000462AF7D88AE71A688A1A462AA1D91A6849
:102550008A1A462AF7D89CE71A688A1A462AABD9FB
:102560001A688A1A462AF7D8A6E700BFFCED00E0F1
:10257000001000E0041000E0C0F00F4062B662B648
:102580004FF4C863013BFDD172B6089FA54AF97BA1
:1025900013687E7C02913C46397C94F915E0089CD6
:1025A000A1487D7B019143F08073D7F8008097F8B4
:1025B0000CA097F80E900396F97CBE7CCDF810E045
:1025C0003F7DD4F804B013600268984C984B42F0F9
:1025D00001020260002222601A681A6822F00802D2
:1025E0001A60019B98F801405D1B5FFA85FC002C86
:1025F00000F0128184FA5CF4E3B24A1C02FB03F39C
:102600000592C3F3072472B6884B1968BBF1000F1B
:1026100001F17C0140F3BA80721C069284487A1C56
:1026200007921F46029ACAEB020A019ACCEB020CEF
:10263000039AC9EB02095FFA8AFA5FFA8CFC5FFA27
:1026400089F972B61A688A4205D91A68521AB2F51F
:10265000935F00F2E4800668056846F0080625F0FE
:1026600008054FF0070E1A688A42FCD339680660E5
:10267000220601F17C0100F18D801A688A1A652A10
:10268000FBD86400BEF1010E0560E4B2EBD11A681C
:102690009142FCD839680660240601F17C0100F102
:1026A00083801A688A1A652AFBD8056098F800406A
:1026B0003CB184FA5AF4069AE4B204FB02F4C4F37F
:1026C00007244FF0070E1A688A42FCD33968066067
:1026D000220601F17C0171D41A688A1A652AFBD896
:1026E0006400BEF1010E0560E4B2ECD11A689142BB
:1026F000FCD839680660240601F17C0167D41A68A9
:102700008A1A652AFBD8056098F802403CB184FA21
:1027100059F4079AE4B204FB02F4C4F307244FF01F
:10272000070E1A688A42FCD339680660220601F156
:102730007C0155D41A688A1A652AFBD86400BEF158
:10274000010E0560E4B2ECD11A689142FCD83968F8
:102750000660220601F17C014BD41A688A1A652AA8
:10276000FBD8049A056090440BF1FF3B98F80140B8
:102770003CB184FA5CF4059AE4B202FB04F4C4F3BD
:10278000072462B6BBF1000F7FF44CAF62B6274B53
:102790001B68ABE61A688A1A462A7FF672AF1A6877
:1027A0008A1A462AF6D86CE71A688A1A462A7FF6E9
:1027B0007CAF1A688A1A462AF6D876E71A688A1A07
:1027C000462A8DD91A688A1A462AF7D888E71A68DD
:1027D0008A1A462A97D91A688A1A462AF7D892E797
:1027E0001A688A1A462AA9D91A688A1A462AF7D86C
:1027F000A4E71A688A1A462AB3D91A688A1A462A96
:10280000F7D8AEE784FA5CF4E3B26A1C02FB03F388
:102810000592C3F30724A0E54B1C0593F3E662B6CB
:1028200064E600BFFCED00E0001000E0041000E0F2
:10283000C0F00F402DE9F04F8BB00446099008918D
:1028400003F05EF9238CC01A83B2312BF8D9089CAF
:102850009E4AE07B13680290207C657C01902046B4
:10286000667BD4F8008094F80C9094F80EA0039541
:10287000A77CE57C94F814E0954994F915400494FC
:1028800043F08073D0F804B013600A689148924B0B
:1028900042F001020A60002202601A681A68019878
:1028A00022F004021A6098F80140861B5FFA86FC49
:1028B000002C40F057826B1C059372B6854B19684B
:1028C000BBF1000F01F17C0140F3BB807A1C069242
:1028D00081480EF1010207921F46029AC9EB0209D4
:1028E000019ACCEB020C039ACAEB020A5FFA89F94F
:1028F0005FFA8CFC5FFA8AFA72B61A688A4205D9C6
:102900001A68521AB2F5935F00F2E880056806680B
:1029100045F0040526F004064FF0070E1A688A42B7
:10292000FCD339680560220601F17C0100F1958035
:102930001A688A1A652AFBD86400BEF1010E066087
:10294000E4B2EBD11A689142FCD8396805602406DC
:1029500001F17C0100F18B801A688A1A652AFBD884
:10296000066098F800403CB184FA59F4069AE4B243
:1029700004FB02F4C4F307244FF0070E1A689142D7
:10298000FCD839680560220601F17C0179D41A6807
:102990008A1A652AFBD86400BEF1010E0660E4B213
:1029A000ECD11A689142FCD839680560240601F11F
:1029B0007C016FD41A688A1A652AFBD8066098F8D9
:1029C00002403CB184FA5AF4079AE4B204FB02F4E0
:1029D000C4F307244FF0070E1A688A42FCD3396803
:1029E0000560220601F17C015DD41A688A1A652A05
:1029F000FBD86400BEF1010E0660E4B2ECD11A68A7
:102A00009142FCD839680560240601F17C0153D459
:102A10001A688A1A652AFBD8049A066090440BF15A
:102A2000FF3B98F801403CB184FA5CF4059AE4B2AB
:102A300002FB04F4C4F3072462B6BBF1000F7FF479
:102A40004CAF62B6234B1B68002B48D003F058F8FC
:102A5000099B18840BB0BDE8F08F1A688A1A462AC1
:102A60007FF66AAF1A688A1A462AF6D864E71A68A7
:102A70008A1A462A7FF674AF1A688A1A462AF6D846
:102A80006EE71A688A1A462A85D91A688A1A462A67
:102A9000F7D880E71A688A1A462A8FD91A688A1ADC
:102AA000462AF7D88AE71A688A1A462AA1D91A68E4
:102AB0008A1A462AF7D89CE71A688A1A462AABD996
:102AC0001A688A1A462AF7D8A6E700BFFCED00E08C
:102AD000001000E0041000E0C0F00F4062B662B6E3
:102AE0004FF4C863013BFDD172B6089FA54AF97B3C
:102AF00013687E7C02913C46397C94F915E0089C71
:102B0000A1487D7B019143F08073D7F8008097F84E
:102B10000CA097F80E900396F97CBE7CCDF810E0DF
:102B20003F7DD4F804B013600268984C984B42F093
:102B300001020260002222601A681A6822F0040270
:102B40001A60019B98F801405D1B5FFA85FC002C20
:102B500000F0128184FA5CF4E3B24A1C02FB03F336
:102B60000592C3F3072472B6884B1968BBF1000FB6
:102B700001F17C0140F3BA80721C069284487A1CF1
:102B800007921F46029ACAEB020A019ACCEB020C8A
:102B9000039AC9EB02095FFA8AFA5FFA8CFC5FFAC2
:102BA00089F972B61A688A4205D91A68521AB2F5BA
:102BB000935F00F2E4800668056846F0040625F09D
:102BC00004054FF0070E1A688A42FCD33968066084
:102BD000220601F17C0100F18D801A688A1A652AAB
:102BE000FBD86400BEF1010E0560E4B2EBD11A68B7
:102BF0009142FCD839680660240601F17C0100F19D
:102C000083801A688A1A652AFBD8056098F8004004
:102C10003CB184FA5AF4069AE4B204FB02F4C4F319
:102C200007244FF0070E1A688A42FCD33968066001
:102C3000220601F17C0171D41A688A1A652AFBD830
:102C40006400BEF1010E0560E4B2ECD11A68914255
:102C5000FCD839680660240601F17C0167D41A6843
:102C60008A1A652AFBD8056098F802403CB184FABC
:102C700059F4079AE4B204FB02F4C4F307244FF0BA
:102C8000070E1A688A42FCD339680660220601F1F1
:102C90007C0155D41A688A1A652AFBD86400BEF1F3
:102CA000010E0560E4B2ECD11A689142FCD8396893
:102CB0000660220601F17C014BD41A688A1A652A43
:102CC000FBD8049A056090440BF1FF3B98F8014053
:102CD0003CB184FA5CF4059AE4B202FB04F4C4F358
:102CE000072462B6BBF1000F7FF44CAF62B6274BEE
:102CF0001B68ABE61A688A1A462A7FF672AF1A6812
:102D00008A1A462AF6D86CE71A688A1A462A7FF683
:102D10007CAF1A688A1A462AF6D876E71A688A1AA1
:102D2000462A8DD91A688A1A462AF7D888E71A6877
:102D30008A1A462A97D91A688A1A462AF7D892E731
:102D40001A688A1A462AA9D91A688A1A462AF7D806
:102D5000A4E71A688A1A462AB3D91A688A1A462A30
:102D6000F7D8AEE784FA5CF4E3B26A1C02FB03F323
:102D70000592C3F30724A0E54B1C0593F3E662B666
:102D800064E600BFFCED00E0001000E0041000E08D
:102D9000C0F00F4070B5051E0C4629DD04F060FB45
:102DA0001F4904F0B1FB1F4B0646186804F058FB9E
:102DB0000146304604F0A8FB04F06CFD1A4B0122DA
:102DC00000281A55B8BF404243F69723984206DDC3
:102DD000164B43F82400164B43F8245070BD154A97
:102DE000124B126843F82420114B43F8245070BD55
:102DF00004F036FB0A4904F087FB0A4B06461868C4
:102E000004F02EFB0146304604F07EFB04F042FD48
:102E1000054B002200281A55B8BF4042D4E700BF36
:102E2000CDCCCC3D3487FF1F54A0FF1F78A0FF1FDF
:102E30005094FF1F2C87FF1F10B50124A31E052BE4
:102E400004D8DFE803F029221B140D301A4802F0E1
:102E5000B7FC0021FFF79EFF072C2CD00134EDE7D3
:102E6000164802F0ADFC0521FFF794FFF6E7144881
:102E700002F0A6FC0421FFF78DFFEFE7114802F0F6
:102E80009FFC0321FFF786FFE8E70F4802F098FC5C
:102E90000221FFF77FFFE1E70C4802F091FC0121DE
:102EA000FFF778FFDAE70A4802F08AFC0621BDE85E
:102EB0001040FFF76FBF10BD1094FF1FCC9EFF1F87
:102EC000BC9EFF1FAC9EFF1F9C9EFF1F8C9EFF1F82
:102ED000DC9EFF1F2DE9F84F40F6B83002F032FEBD
:102EE000FFF7AAFFDFF84493DFF84483A94FAA4E07
:102EF000DFF840B3DFF840A30025002407214BF89A
:102F000025404AF82540A54849F8044F48F8044FA1
:102F100047F8044F03F0C0FC2946A14803F02EFFF8
:102F20000D21A04803F0B8FC9F4B9D4853F8251095
:102F300003F024FF1E219D4803F0AEFC16F8011F8C
:102F4000974803F01BFF2021994803F0A5FC994BFB
:102F5000934853F8251003F011FF0135904803F012
:102F6000BDFE072DC9D103F04BFD934B934A03F1EE
:102F70001C0143F8044F994242F8044FF9D190489C
:102F8000036813F0010477D0002354228D498E4842
:102F900002F034FA8D4A1368B024F021FF254473FF
:102FA00013F001048173057300F08E810023542215
:102FB0008749884802F022FA874A1368B024F02132
:102FC000FF25447313F001048173057300F05981E8
:102FD000002354228149824802F010FA814A136882
:102FE000B024F021FF25447313F0010481730573AD
:102FF00000F02481002354227B497C4802F0FEF932
:103000007B4A1368B024F021FF25447313F00104B8
:103010008173057300F09980002354227549764826
:1030200002F0ECF9754A1368B024F021FF254473CF
:1030300013F001048173057364D000235422704996
:10304000704802F0DBF9704A1368B024F021FF25C4
:10305000447313F001048173057330D000235422AC
:103060006A496B4802F0CAF9FF21B022F0230173CC
:1030700042738373BDE8F88F02F0AEFC002883D062
:103080006449514A08685460FF23012554619460E3
:103090009574137353739373D37313745374002819
:1030A00000F036815C4B196801B18A6000245B49ED
:1030B000434814841A60116002F094FC64E71046DF
:1030C00002F08AFC0028C9D0524B514A196854605A
:1030D0000120157355739573D57315745574546128
:1030E00094609074002900F015814B4B196801B170
:1030F0008A6000244A49444814841A60116002F02E
:1031000071FCABE7104602F067FC002895D0414BFC
:103110003C4A196854600120157355739573D57333
:1031200015745574546194609074002900F0F48013
:10313000394B196801B18A6000243A492F48148438
:103140001A60116002F04EFC77E7104602F044FC72
:1031500000283FF461AF2F4B274A196854600120C3
:10316000157355739573D5731574557454619460C4
:103170009074002900F0D280274B196801B18A6051
:10318000002429491A4814841A60116002F02AFCAC
:1031900042E700BF3CA4FF1F53A0FF1F8C8C000020
:1031A0009887FF1F948C00005094FF1FA48C000090
:1031B000C48C000078A0FF1F9C93FF1F589EFF1F28
:1031C0000893FF1F4C95FF1F0C93FF1FE092FF1FFA
:1031D0004896FF1FE492FF1FB892FF1F4497FF1FFE
:1031E000BC92FF1F9092FF1F4098FF1F9492FF1FF9
:1031F0006892FF1F3C99FF1F6C92FF1F4092FF1FB8
:10320000389AFF1F4492FF1F1892FF1F349BFF1F25
:103210001C92FF1F6CA4FF1F7CA4FF1F988B000053
:10322000708C00004C8C0000288C000088A3FF1FCD
:1032300070A1FF1FA89FFF1F3095FF1F104602F0CF
:10324000CBFB00283FF4D6AE374B384A19685460A0
:103250000120157355739573D573157455745461A6
:103260009460907400295BD0314B196801B18A6079
:1032700000243049304814841A60116002F0B2FB17
:10328000B8E6104602F0A8FB00283FF4A1AE264B9A
:103290002A4A196854600120157355739573D573C4
:1032A0001574557454619460907400293AD0204B81
:1032B000196801B18A6000242149224814841A60E7
:1032C000116002F08FFB83E6104602F085FB0028B8
:1032D0003FF46CAE144B1C4A1968546001201573FE
:1032E00055739573D57315745574546194609074C7
:1032F00061B10F4B196801B18A6000241349144869
:1033000014841A60116002F06DFB4FE61A60F0E75A
:103310000A60C7E61A60E8E61A6009E71A602BE758
:103320001A60A1E71A60C2E76CA4FF1F9492FF1F06
:103330007CA4FF1F048C00009092FF1FBC92FF1F13
:10334000E08B0000B892FF1FE492FF1FBC8B0000CF
:10335000E092FF1F30B5134B134C53F8215089B046
:103360000A220146684603F083FD694604A803F07B
:1033700061FD04A80D4903F0E3FD294603F0EEFDCD
:103380000B4903F0DDFD0146204603F081FC204699
:1033900003F0A4FC04A803F0F9FC684603F0F6FC73
:1033A00009B030BD6487FF1F9887FF1FE88C0000BD
:1033B000EC8C00001E4A52F82030532BF0B41BDC7A
:1033C00003EB43041B4E1C4DC0EB801104EB810149
:1033D0007418013342F820302F786A78775462707D
:1033E000164AAB78A37052F82030532B0CDD002323
:1033F00042F82030F0BC7047002342F820300F4ADA
:1034000052F82030532BF2DC0A4E0D4C03EB4301F3
:10341000C0EB801501EB850175180233277842F85F
:1034200020306278A37877546A70AB70F0BC704734
:10343000BC93FF1F4C95FF1FA49FFF1FE4A3FF1F1A
:10344000EC94FF1F2DE9F04FA84C54F820208FB0CA
:103450008346002A40F02D81A54DA64E55F82070D8
:103460003146384604F00CFA002800F03881A24AB0
:103470003846116803F03EFF45F82B009F4A11685B
:10348000002940F330829E4900919E4904914FEA01
:103490008B139D490693CBEB030805919B4C9C49EC
:1034A0009C4B03914FEA880800250DAF4FF0D20ADC
:1034B0004FF0FF0953F82B100292294401EB410110
:1034C000414400262144384601938DF834A08DF8FC
:1034D00035908DF8366002F053F8009B8DF8366019
:1034E00053F82B108DF834A0294401EB41014144DD
:1034F000214438468DF8359002F042F8049B8DF84F
:10350000366053F82B108DF834A0294401EB4101AB
:103510004144214438468DF8359002F031F8059B3E
:103520008DF8366053F82B108DF834A0294401EB48
:1035300041014144214438468DF8359002F020F88D
:10354000039B8DF8366053F82B108DF834A0294476
:1035500001EB41014144214438468DF8359002F099
:103560000FF8029A019B11680135A942A2DC53F8B9
:103570002B000193069B0292CBEB0305023000EB7C
:103580004000AD00411921444FF0D208FF264FF012
:10359000000938468DF834808DF835608DF8369006
:1035A00001F0EEFF009B8DF8348053F82B108DF85E
:1035B0003560023101EB41012944384621448DF840
:1035C000369001F0DDFF5448DFF860A100685349F0
:1035D0000AEB0010096802F0A7F9019B029A002883
:1035E00040F0A6801168002947DD06994648484DFD
:1035F000DFF81CA10395CBEB01064249B60000257C
:103600001F468846814657F82B10454801922944A9
:1036100001EB41013144214401F0B2FF009B4048DD
:1036200053F82B10294401EB41013144214401F0AE
:10363000A7FF58F82B103A48294401EB41013144C7
:10364000214401F09DFF59F82B103548294401EB26
:1036500041013144214401F093FF5AF82B103048C6
:10366000294401EB41013144214401F089FF019AD1
:1036700011680135A942C6DC3B4653F82B10069B66
:103680002848CBEB03050231AD0001EB4101294491
:10369000214401F075FF009B224853F82B100231A2
:1036A00001EB41012944214401F06AFF0FB0BDE85C
:1036B000F08F012A7FF4E2AE0D4D1B4E55F82070BD
:1036C0003146384604F0BEF8002800F015810A4A59
:1036D0003946106803F010FE45F82B00CEE60122B3
:1036E00045F82B6044F82B20C8E600BFD893FF1F95
:1036F0003C87FF1F000016432487FF1F8487FF1F9E
:1037000090A1FF1F1C9FFF1F5C9FFF1F4C95FF1F79
:10371000889FFF1F409EFF1F6087FF1F2887FF1F96
:103720002CA1FF1F70A1FF1F00007F43CC9DFF1F36
:103730000B93744B74481988744B90F8008013F8FD
:103740002B00089001EB412001EB800000F5585060
:10375000193080B26E4E049600EB402600EB8606D0
:103760006C4D059506F55856193615F82B500795EA
:10377000B6B206EB462506EB850505F55855193515
:10378000ADB205EB452105EB810101F55851193129
:1037900089B201EB4127039101EB87075E4907F5E9
:1037A0005857029711F82B10594F17F82BE00F4676
:1037B0005A4911F82B100191029900EB1020193190
:1037C00089B2C0B2029106EB1626039903900898BD
:1037D00008F1010C05EB1525F6B25FFA8CFC0A9690
:1037E000EEB2C8EB0005EDB26044401BC0B20890D9
:1037F00007980995C8EB0005EDB26044401B01EB4A
:103800001121C0B2C9B211FB00F105EB11210791E2
:10381000C8EB0E01C9B2E644C1EB0E0E5FFA8EFE94
:1038200016FB0EF501EB15260199BDF828E03D4683
:10383000C8EB07076544F8B2C8EB010801992F1AD5
:1038400061445FFA88F8FFB2029DC8EB01011EFBDC
:1038500007F7BDF80CE0C9B21EFB01F105EB152C12
:10386000BDF820E0099D5FFA8CFC1CFB0EFC05EB0B
:103870001C2C15680192C5F15205F6B2214ABDF81B
:1038800008E0A2F800E05FFA8CFCAE429DF81CE074
:103890001F4AA8BF2E46AC45A8BFAC4643F82BC074
:1038A000AE4500EB17271B4B42F82B60A8BFAE4676
:1038B000FFB243F82BE0AF4208EB1128164BA8BF2C
:1038C0002F465FFA88F843F82B704545134BA8BF85
:1038D000454649460AEB0B1043F82B5002F018F806
:1038E0000B9B019A7EE60C4900914FEA8B110C4C20
:1038F0000A4B06910DAF3AE645F82B6044F82B00D1
:10390000BCE500BF8C87FF1F3087FF1F889FFF1F0C
:103910001C9FFF1F5C9FFF1F90A1FF1F409EFF1F6A
:103920004C95FF1F2DE9F04FDFF8CCA2DAF800200C
:10393000002A85B0044665DD0026C0EB8017DFF85D
:10394000BC92A64ADFF8ACB23546BF004FF0FF0884
:1039500052F824100192314401EB410139444944A9
:1039600003A88DF80C508DF80D808DF80E5001F0E5
:1039700007FE5BF824108DF80C50314401EB410137
:103980003944494403A88DF80D808DF80E5001F09C
:10399000F7FD934B8DF80C5053F824108DF80D80E3
:1039A000314401EB41013944494403A88DF80E50DC
:1039B00001F0E6FD8B4B8DF80C5053F824108DF878
:1039C0000D80314401EB41013944494403A88DF88D
:1039D0000E5001F0D5FD844B8DF80C5053F8241097
:1039E0008DF80D80314401EB41013944494403A86D
:1039F0008DF80E5001F0C4FDDAF80030019A01365E
:103A0000B342A5DC794F7A4A07EB041738461168B0
:103A100001F08AFF002877D1DAF80010002970DD64
:103A20006E4B744E53F824206F4B6D4D53F8247039
:103A30006C48DFF8CCB1DFF8C49156F8248055F813
:103A400024C050F824E09BF800609BF80150C4EBC0
:103A500084139B0001EB020A02EB42009C1C591CE0
:103A60000AEB4A0A9A440144034420449BF802406A
:103A7000CA44A2EB82024B444944484408EB48083C
:103A80000CEB4C0C0EEB4E0E07EB470703EB080B51
:103A900001EB080901F8016C5D709C700BF8026085
:103AA00009F8025000EB080B03EB0C090BF802407D
:103AB00009F8026001EB0C0B00EB0C090BF802504B
:103AC00009F8024003EB0E0B01EB0E090BF8026044
:103AD00009F8025000EB0E0B03EB07090BF802404C
:103AE000033309F8026001EB070B00EB07095345AC
:103AF0000BF8025001F1030109F8024000F1030044
:103B0000C4D105B0BDE8F08FDFF8F8C0DAF80000E6
:103B1000BCF8002002EB422102EB810101F5585173
:103B2000193189B201EB412201EB820202F55852B0
:103B3000193292B202EB422502EB850505F5585584
:103B40001935ADB205EB452605EB860606F5585648
:103B50001936B6B206EB462E06EB8E0E0EF5585E03
:103B60000EF1190E1FFA8EFE02EB122205EB15253F
:103B7000C0F15200C0B20EEB1E2801EB112106EB82
:103B80001626D2B2EDB215FB00F512FB00F2C9B257
:103B9000F6B25FFA88F811FB00F12B1218FB00F85F
:103BA000151216FB00F6ACF800E00F4ADFF834E01F
:103BB00038464FEA28280F123612094942F8248065
:103BC0004EF824600B4A054E41F82430002142F89B
:103BD000245046F8247001F09BFE1DE754A1FF1FFE
:103BE00060A3FF1F24A4FF1FF493FF1F409CFF1F2F
:103BF0005887FF1FD89FFF1F8887FF1F4C95FF1F07
:103C0000789EFF1F8C87FF1F2DE9F04FDFF8DCA2A5
:103C1000DAF80020002A85B0044665DD0026C0EBF6
:103C20008017DFF8CC92A84ADFF8B4B23546BF005F
:103C30004FF0FF0852F824100192314401EB41018A
:103C40003944494403A88DF80C508DF80D808DF847
:103C50000E5001F095FC5BF824108DF80C503144A7
:103C600001EB41013944494403A88DF80D808DF8DA
:103C70000E5001F085FC954B8DF80C5053F8241034
:103C80008DF80D80314401EB41013944494403A8CA
:103C90008DF80E5001F074FC8D4B8DF80C5053F8DC
:103CA00024108DF80D80314401EB41013944494421
:103CB00003A88DF80E5001F063FC864B8DF80C5074
:103CC00053F824108DF80D80314401EB4101394443
:103CD000494403A88DF80E5001F052FCDAF8003088
:103CE000019A0136B342A5DC7B4A7C481168260163
:103CF000304401F019FE002877D1DAF800100029CD
:103D000070DD714B764E53F82420724B6F4D53F893
:103D100024706F48DFF8DCB1DFF8D49156F82480C6
:103D200055F824C050F824E09BF800609BF801503F
:103D3000C4EB84139B0001EB020A02EB42009C1CC3
:103D4000591C0AEB4A0A9A440144034420449BF854
:103D50000240CA44A2EB82024B444944484408EB67
:103D600048080CEB4C0C0EEB4E0E07EB470703EB31
:103D7000080B01EB080901F8016C5D709C700BF8F1
:103D8000026009F8025000EB080B03EB0C090BF87A
:103D9000024009F8026001EB0C0B00EB0C090BF878
:103DA000025009F8024003EB0E0B01EB0E090BF871
:103DB000026009F8025000EB0E0B03EB07090BF849
:103DC0000240033309F8026001EB070B00EB07091F
:103DD00053450BF8025001F1030109F8024000F1CC
:103DE0000300C4D105B0BDE8F08F3E4FDAF8000003
:103DF0003A88DFF8E09002EB422102EB810101F505
:103E00005851193189B201EB412201EB820202F5CE
:103E10005852193292B202EB422E02EB8E0E0EF580
:103E2000585E0EF1190E1FFA8EFE0EEB4E250EEBAC
:103E3000850505F558551935ADB205EB452C05EB53
:103E40008C0C0CF5585C0CF1190C1FFA8CFC0EEB69
:103E50001E2E5FFA8EF801EB11210CEB1C2E02EBEB
:103E6000122205EB1525C0F15200C0B2C9B2D2B280
:103E7000EDB25FFA8EFE18FB00F811FB00F11EFB9D
:103E800000FE15FB00F512FB00F2A7F800C0164873
:103E9000DFF83CC00B122D120C494CF824504FEAAD
:103EA00028273044084D0E4E41F824704FEA2E2E3C
:103EB0001212002149F824E046F8242045F8243065
:103EC00001F026FD19E700BF54A1FF1F60A3FF1FEB
:103ED00024A4FF1FF493FF1F5C87FF1F94A0FF1F04
:103EE000D89FFF1F8C87FF1F409CFF1F8887FF1FE5
:103EF0004C95FF1FE0A3FF1F2DE9F04FD04DD14B94
:103F000005EB001585B004461968284601F00CFD44
:103F1000002844D0CC4F57F82430002B42D1CB4E50
:103F200056F82430BBBBDFF83CA35AF8249048462F
:103F300003F096FAC64903F085FC4FEA841809EBB2
:103F40004901C4EB0803DFF82093834601EB8301AA
:103F5000C0484944BBF1000F00F0B38001F010FBF2
:103F60005AF8243001334AF82430BB4FB94857F887
:103F70002410C4EB0808522901EB410101EB880130
:103F8000494440F3968001F0FBFA2A22012347F8C6
:103F9000242046F824302846002101F0B9FC05B061
:103FA000BDE8F08F012B3ED0022B40F09480A74E4D
:103FB00056F82430022BEED1DFF8A8A2DFF8A89241
:103FC0005AF82430A3484FEA8418002BC4EB0801A8
:103FD00003EB430303EB8101494440F31F8101F0EC
:103FE000CFFA5AF82430013B4AF82430DFF868A2AF
:103FF0005AF82470384603F033FA984903F040FC2D
:1040000007EB4707C4EB080107EB8101494400288F
:1040100000F0E2808F4801F0B3FA5AF82430013BF7
:104020004AF82430B7E7894E56F82430012BB2D134
:10403000DFF830B25BF82490484603F011FA844967
:1040400003F000FC4FEA841809EB4903C4EB0801B4
:10405000DFF81492002800F0A88003EB81010DF135
:104060000C0A8C23FF228DF80C3049440023504663
:104070008DF80E308DF80D2001F082FA5BF82430B7
:1040800001334BF82430744F57F82430C4EB080147
:10409000522B03EB430303EB81014944504671DC8F
:1040A0008C26FF2200238DF80C608DF80D208DF8F2
:1040B0000E3001F065FA57F82430013347F8243008
:1040C00069E701F05DFA664B1A6801234AF822B0ED
:1040D00047F8243049E7032B7FF45DAF5B4E56F879
:1040E0002430032B7FF457AFDFF878B1DFF87891F5
:1040F0005BF824304FEA8418002BC4EB080103EB73
:10410000430303EB81014FF08C030DF10C0A4FF0D8
:10411000FF028DF80C304FF00003494450468DF8F3
:104120000D208DF80E3040F3828001F029FA5BF803
:104130002430013B4BF82430DFF81CB15BF82470CD
:10414000384603F08DF9454903F09AFB07EB470722
:10415000034600284AD0C4EB080107EB8101002385
:10416000FF22494450468C268DF80E308DF80C60A5
:104170008DF80D2001F004FA5BF82430013B4BF878
:10418000243008E7FF2200234FF08C0E8DF80D201D
:104190008DF80E308DF80CE001F0F2F95322022375
:1041A00047F8242046F82430F5E603EB81010DF1B1
:1041B0000C0A8C22FF238DF80E00494450468DF8DE
:1041C0000C208DF80D3001F0DBF9292202234BF889
:1041D000242047F8243056E71E4801F0D1F9532235
:1041E00003234AF8242046F82430D4E6C4EB080818
:1041F00007EB8801FF22494450468C278DF80E308A
:1042000001938DF80D208DF80C7001F0B9F92A2278
:10421000019B46F824304BF82420BCE601F0B0F9AD
:10422000292203234AF8242047F82430DEE60193AC
:1042300001F0A6F9019B4BF8243047F824307BE7C6
:10424000F0A2FF1F3887FF1FA8A3FF1FECA1FF1FCD
:1042500000002442E8A2FF1F8493FF1F00002842B1
:104260006087FF1F30A1FF1F4C95FF1F2DE9F04F06
:10427000D24DD34B05EB001583B004461968284690
:1042800001F052FB002800F08880CE4F57F8243010
:10429000002B41D1CC4E56F82430B3BBDFF840A3FD
:1042A0005AF82490484603F0DBF8C84903F0CAFAEC
:1042B0004FEA841809EB4901C4EB0803DFF82493A3
:1042C000834601EB8301C2484944BBF1000F00F073
:1042D000AF8001F055F95AF8243001334AF8243000
:1042E000BC4FBB4857F82410C4EB0808522901EB17
:1042F000410101EB8801494400F3918001F040F94C
:1043000057F82430013347F824302846002103B001
:10431000BDE8F04F01F0FCBA012B41D0022B40F078
:104320008F80A94E56F82430022BEED1DFF8B0A2D0
:10433000DFF8B0925AF82430A5484FEA8418002BD1
:10434000C4EB080103EB430303EB8101494440F351
:104350000F8101F015F95AF82430013B4AF8243056
:10436000DFF870A25AF82470384603F079F89A49B9
:1043700003F086FA07EB4707C4EB080107EB81015E
:104380004944002800F0D780914801F0F9F85AF824
:104390002430013B4AF82430B7E703B0BDE8F08F82
:1043A000894E56F82430012BAFD1DFF834B25BF8D8
:1043B00024A0504603F054F8844903F043FA4FEA2E
:1043C0008418002800F09C80C4EB0801DFF81492E8
:1043D000824A0AEB4A0303EB810309EB03070AF164
:1043E000010110784BF824105178927809F80300F5
:1043F0007970BA70774F57F82430522B6ADC03EB90
:104400004306C4EB080806EB880809EB08060133ED
:1044100009F8080047F824307170B27075E701F0B0
:10442000AFF82A22012347F8242046F824306CE70D
:1044300001F0A6F801234AF824B047F824304FE7EA
:10444000032B7FF462AF604E56F82430032B7FF4C9
:104450005CAF634951F82430002B4FEA841840F3D5
:104460009080C4EB080703EB4302DFF878915B48C8
:1044700002EB870209EB020E013B90F800B090F8C6
:1044800001A0877841F8243009F802B08EF801A025
:104490008EF802704F4B019353F82420009210467F
:1044A00002F0DEFF4C4903F0EBF99DE80C00002818
:1044B0004BD002EB4201C4EB080801EB880109EB89
:1044C0000100013A09F801B043F8242080F801A066
:1044D00087701AE703EB4303C4EB080803EB880378
:1044E00009EB030E09F803004FF0530C02238EF87A
:1044F00001108EF8022047F824C046F8243004E763
:10450000364BDFF8E09018785978C4EB08020AEBD4
:104510004A0A0AEB820A09EB0A0E9A7809F80A009D
:1045200029234BF82430022347F824308EF8011059
:104530008EF802205EE7264801F022F8532203237A
:104540004AF8242046F82430DFE602EB4202C4EBAE
:10455000080802EB880809EB08022A2109F808B0CC
:1045600046F8240043F8241082F801A09770CCE6A6
:1045700001F006F8292203234AF8242047F82430C2
:10458000EEE6164ADFF85C9092F800B092F801A0CF
:104590009278C4EB080003EB430303EB800309EBC1
:1045A000030009F803B0002347F8243041F8243011
:1045B00080F801A0827017466CE700BFB09CFF1F17
:1045C0008087FF1F4093FF1FC4A3FF1F00002442EA
:1045D000ECA2FF1F0095FF1F00002842A49FFF1FB1
:1045E000609DFF1F4C95FF1FF0B5044683B0052961
:1045F0001AD8DFE801F0032053284E1B4F4A52F827
:104600002030532B7ADC03EB4301C0EB80104C4D80
:1046100001EB800168180133C827642642F8243072
:104620000F236F544670837003B0F0BD03B0BDE834
:10463000F040FFF71BBE032A6AD0204603B0BDE856
:10464000F040FEF7B7BE3F4840F6B83100EB04102B
:1046500001F06AF9002855D03B4D2B5D9BB13B4AD8
:10466000374F167850789178C4EB84139B0003F190
:10467000FC023A443B441E705870997003339342D5
:10468000F9D100232B55204603B0BDE8F040FFF7D9
:1046900049B903B0BDE8F040FFF72EBC012A41D074
:1046A0002B4D05EB0015284601F03CF900B32846D8
:1046B0004FF4FA6101F038F9B8B1234D2B5DBBB16D
:1046C000224A1F4F167850789178C4EB84139B00D0
:1046D00003F1FC023A443B441E7058709970033356
:1046E0009342F9D100232B559EE72046FEF762FE48
:1046F000204603B0BDE8F040FEF7A4BE002342F818
:10470000203091E7204603B0BDE8F040FFF77CBAC7
:104710000C48002100EB041001F0FAF80A4B0122CA
:104720001A558AE70A4D019205EB0015284600212B
:1047300001F0EEF8044B019A1A55B4E75CA0FF1F94
:104740004C95FF1F6C94FF1F04A1FF1F2C95FF1FAA
:1047500058A2FF1F2DE9F04788B002F073F8002837
:10476000DFF8A091DFF8A08158DD02F02FF8C0B289
:10477000612859D0632800F083807A285AD099F8AC
:1047800000303BB1534B1B68012B00F09580022B8E
:1047900000F09980DFF874A14F4F504B00255AF874
:1047A000046F57F8042F96423BD098F8000098F811
:1047B000011098F8022003F1FC04187059709A70E7
:1047C0000333A342F9D1464904A802F01FFB0A2291
:1047D0003146684602F04CFB694604A802F0A8FB8B
:1047E0000146404802F054FA3E4802F077FA684623
:1047F00002F0CCFA04A802F0C9FA31463A68284619
:10480000FFF7F2FE0135072D2346C8D1364801785F
:1048100000F046FE02F016F80028A6DC08B0BDE85D
:10482000F08703F1FC04EDE72A4A0123136089F8BD
:104830000030AFE72D4C04A8214602F0E7FA04A8A7
:1048400002F0ACFB009004A802F0A0FA284A294B21
:104850001168E278009843F821003AB10023012A58
:10486000237003D0022A637000D0A370224823492A
:10487000184A0023036089F800300B60136089E751
:104880001F4C04A8214602F0C1FA04A802F086FBDE
:10489000054604A802F07AFA154BE2781D603AB199
:1048A0000023012A237003D0022A637000D0A37072
:1048B000084B02221A606DE70F4A114913685C1C0D
:1048C0001460C85466E70D4A084913685C1C1460FC
:1048D000C8545FE76093FF1F589EFF1F4C95FF1F52
:1048E000F88C00009887FF1F5CA4FF1F3C9EFF1FF1
:1048F0006087FF1FA093FF1F4CA1FF1F50A1FF1F48
:104900005C93FF1F00A4FF1F2C95FF1F9C93FF1FAC
:1049100070B50B4EFFF71EFF0A4A0B4B316810684B
:1049200003F11C05002253F8044FA04204BF0146C6
:104930000122AB42F7D102B970BD3160FCE700BF84
:10494000D49FFF1F6087FF1F6087FF1F38B50C468D
:10495000054619212F4801F09FFF29462E4802F0F5
:104960000DFA12212D4801F097FF21462A4802F046
:1049700005FA294802F0B2F9042C4AD8DFE804F01D
:104980001926334003000B212548264C01F084FFF3
:10499000214802F0A3F9012319462846042244F8CD
:1049A0002530FFF721FE2048BDE83840017800F0AF
:1049B00077BD0B211D481B4C01F06EFF164802F01D
:1049C0008DF90123194628460022E8E70B211848F3
:1049D000144C01F061FF104802F080F901232846D1
:1049E0001A461946DBE70B2112480E4C01F054FF22
:1049F000094802F073F90123194628460222CEE73E
:104A00000B210D4801F048FF0348BDE8384002F093
:104A100065B938BD088D00009887FF1F248D000000
:104A2000688D0000A093FF1F5CA4FF1F388D00005D
:104A3000448D0000508D00005C8D00002DE9F8438E
:104A4000574B5B5C0C4693B3564B574F53F8215072
:104A500057F82130DFF87C812D1A9D4235DC534E0A
:104A6000002348F8213056F82430002B74D0082158
:104A70004F48DFF8589101F00FFF21464D4802F0F2
:104A80007DF92A214C4801F007FF2946494802F0E8
:104A900075F91A21494801F0FFFE57F824104548DE
:104AA00002F06CF9434802F019F9002334E03D4A62
:104AB0003D4F52F8215057F82120DFF81881002D82
:104AC000B8BF6D42054495423FDD384E012348F89A
:104AD000243056F82430012B58D008213448DFF810
:104AE000EC9001F0D9FE2146324802F047F920212E
:104AF000334801F0D1FE29462E4802F03FF91A2131
:104B00002E4801F0C9FE57F824102A4802F036F961
:104B1000284802F0E3F801231946204649F82430DA
:104B2000FEF718FC274B204653F82410FFF70EFF22
:104B300059F82430244958F8242046F82420012B21
:104B400041F824301FD0BDE8F883184E48F82130D2
:104B500056F82430002B8AD11C4A1B4952F82420D5
:104B600046F82430012A41F82420ECD12B211848A2
:104B700001F092FE0F4802F0B1F820460021BDE896
:104B8000F843FEF7E7BB012AF0D1DCE70F490E4AF4
:104B900051F8241046F8243042F82410BDE8F88378
:104BA00054A0FF1F5094FF1F78A0FF1FA89FFF1F56
:104BB000748D00009887FF1FC08D0000A48D000039
:104BC000808D00005C9EFF1F74A1FF1F8CA3FF1F40
:104BD000EC8D00003095FF1F10B5044682B006280A
:104BE0000ED8DFE800F00F14191E2328040001A9D5
:104BF000134800F0ABFD18B121460198FFF71EFFE6
:104C000002B010BD01A90F4800F0A0FDF3E701A913
:104C10000D4800F09BFDEEE701A90C4800F096FD61
:104C2000E9E701A90A4800F091FDE4E701A9094874
:104C300000F08CFDDFE701A9074800F087FDDAE707
:104C4000DC9EFF1F1094FF1F8C9EFF1F9C9EFF1F6A
:104C5000AC9EFF1FBC9EFF1FCC9EFF1F2D4A2E4BFC
:104C6000126870B553F822102C4E2D4D30682D4C23
:104C7000232988BF002188B088BF43F82210FFF79E
:104C8000ABFF33682848013383FB00011944DA176E
:104C9000C2EBA102C2EBC2029B1A3360FFF738FEDF
:104CA000002624E002F0B2F80A222968684602F0E1
:104CB000DFF8694604A802F03BF901461B4801F001
:104CC000E7FF1A4802F00AF8684602F05FF804A805
:104CD00002F05CF8296822683046FFF785FC2B68F3
:104CE00022680136934218BF2360072E09D054F87A
:104CF000042F55F8043F0E49934204A8D2D111461F
:104D0000EAE70C48017800F0CBFB022000F01AFF24
:104D100008B070BD6087FF1FA093FF1F589FFF1F43
:104D20009C93FF1F589EFF1F932449929887FF1F53
:104D3000F88C00005CA4FF1F2DE9F84FDFF82CA4CD
:104D4000F04EF14DDFF82894DFF82884EF4FF04C57
:104D5000DFF824B4802350460122002100F092FDA8
:104D600032462946504602F0BBFD802348460422C5
:104D7000032100F087FD32462946484602F0B0FD87
:104D8000802340460A22092100F07CFD3246294654
:104D9000404602F0A5FD802338460C220B2100F08E
:104DA00071FD32462946384602F09AFD802320469E
:104DB00010220F2100F066FD32462946204602F0FF
:104DC0008FFDD44FD44CDFF8B4A3DFF8B493DFF8F1
:104DD000B483802358461222112100F053FD32463D
:104DE0002946584602F07CFD8023384616221321BE
:104DF00000F048FD32462946384602F071FD204653
:104E0000002100F069FD5046002100F065FDC34F10
:104E1000C34EC44DDFF870B34846002100F05CFD7E
:104E20004046002100F058FD3846002100F054FDB6
:104E30003046002100F050FD2846002100F04CFDD6
:104E400094E80F00B84C84E80F009AE80F0004F1D2
:104E5000100E8EE80F0099E80F0004F1200E8EE886
:104E60000F0098E80F0004F1300E8EE80F0097E86D
:104E70000F0004F1400787E80F0096E80F0004F1E7
:104E8000500686E80F0095E80F00DFF800A3DFF872
:104E90000093DFF80083A54FA54EA64D603484E84B
:104EA0000F005846002100F017FD5046002100F089
:104EB00013FD4846002100F00FFD4046002100F0A0
:104EC0000BFD3846002100F007FD3046002100F0C0
:104ED00003FD2846002100F0FFFC9BE80F00964CE4
:104EE000DFF8B4B284E80F009AE80F0004F1100E66
:104EF0008EE80F0099E80F0004F1200E8EE80F00F5
:104F000098E80F0004F1300E8EE80F0097E80F00CC
:104F100004F1400787E80F0096E80F0004F15006FF
:104F200086E80F0095E80F00DFF870A2DFF87092B6
:104F3000DFF87082814F824E824D603484E80F002A
:104F40005846002100F0C8FC5046002100F0C4FC87
:104F50004846002100F0C0FC4046002100F0BCFCA7
:104F60003846002100F0B8FC3046002100F0B4FCC7
:104F70002846002100F0B0FC9BE80F00724CDFF8DF
:104F800028B284E80F009AE80F0004F1100E8EE8B2
:104F90000F0099E80F0004F1200E8EE80F0098E84A
:104FA0000F0004F1300E8EE80F0097E80F0004F1B7
:104FB000400787E80F0096E80F0004F1500686E8E6
:104FC0000F0095E80F00DFF8E4A1DFF8E491DFF8C7
:104FD000E4815E4F5E4E5F4D603484E80F005846BA
:104FE000002100F079FC5046002100F075FC484695
:104FF000002100F071FC4046002100F06DFC3846B5
:10500000002100F069FC3046002100F065FC2846D4
:10501000002100F061FC9BE80F004F4CDFF898B1D5
:1050200084E80F009AE80F0004F1100E8EE80F00DC
:1050300099E80F0004F1200E8EE80F0098E80F00A9
:1050400004F1300E8EE80F0097E80F0004F14007DE
:1050500087E80F0096E80F0004F1500686E80F007D
:1050600095E80F00DFF854A1DFF85491DFF8548180
:105070003A4F3B4E3B4D603484E80F0058460021C8
:1050800000F02AFC5046002100F026FC4846002192
:1050900000F022FC4046002100F01EFC38460021B2
:1050A00000F01AFC3046002100F016FC28460021D2
:1050B00000F012FC9BE80F002B4CDFF80CB184E8E9
:1050C0000F009AE80F0004F1100E8EE80F0099E827
:1050D0000F0004F1200E8EE80F0098E80F0004F195
:1050E000300E8EE80F0097E80F0004F1400787E8C4
:1050F0000F0096E80F0004F1500686E80F0095E8CF
:105100000F0063E02087FF1FED560000AC9EFF1FDD
:10511000BC9EFF1FDC9EFF1F4094FF1F0CA1FF1FC2
:10512000C49FFF1F14A0FF1F58A2FF1FBC9DFF1F9D
:10513000F094FF1F9C9DFF1F6C94FF1F44A0FF1F56
:105140001CA1FF1FFC9EFF1FCC9DFF1FACA1FF1FDA
:1051500024A0FF1F3093FF1F409CFF1F18A2FF1FBA
:10516000CCA1FF1F48A2FF1F94A0FF1F1094FF1F98
:105170008C9EFF1F9C9EFF1FCC9EFF1F7C9EFF1FCF
:10518000EC9EFF1F389FFF1F0C9FFF1F409DFF1FBE
:105190003094FF1F789FFF1F1C95FF1F309CFF1F3F
:1051A000309DFF1F8C9DFF1F38A2FF1F2094FF1F03
:1051B000F49FFF1FD8A2FF1FAC9DFF1F7CA3FF1F02
:1051C000C8A2FF1FBCA1FF1F6493FF1FDFF8F8A157
:1051D000DFF8F891DFF8F881704F714E714D60344F
:1051E00084E80F005846002100F076FB504600216D
:1051F00000F072FB4846002100F06EFB40460021A3
:1052000000F06AFB3846002100F066FB30460021C2
:1052100000F062FB2846002100F05EFB9BE80F00D7
:10522000614CDFF8B0B184E80F009AE80F0004F198
:10523000100E8EE80F0099E80F0004F1200E8EE8A2
:105240000F0098E80F0004F1300E8EE80F0097E889
:105250000F0004F1400787E80F0096E80F0004F103
:10526000500686E80F0095E80F00DFF86CA1DFF824
:105270006C91DFF86C814D4F4D4E4E4D603484E89B
:105280000F005846002100F027FB5046002100F097
:1052900023FB4846002100F01FFB4046002100F0A0
:1052A0001BFB3846002100F017FB3046002100F0C0
:1052B00013FB2846002100F00FFB9BE80F003E4C3B
:1052C000DFF820B1DFF820C184E80F009AE80F0072
:1052D00004F1100E8EE80F0099E80F0004F1200E83
:1052E0008EE80F0098E80F0004F1300E8EE80F00F2
:1052F00097E80F0004F1400787E80F0096E80F00D9
:1053000004F1500686E80F0095E80F00DFF8DC9006
:10531000DFF8DCA0DFF8DC80DFF8DCE0274F284E88
:10532000284D603484E80F0000226E2064230F2192
:10533000C82489F8000089F801208AF801308AF829
:105340000210FF238C20D2218BF800208BF8012043
:105350008BF802208AF8004089F802204FF03209C9
:1053600088F8012088F8022088F800308EF80000C4
:105370008EF801308EF802307B70BB70397031705E
:10538000B37086F801902B706B70AB708CF8014095
:105390008CF802308CF80000BDE8F88F7493FF1F82
:1053A00004A0FF1F14A4FF1FF0A2FF1FDCA1FF1F1A
:1053B000509DFF1F28A2FF1FB09CFF1F2CA1FF1FA5
:1053C00070A1FF1FE0A3FF1F04A4FF1F7C9DFF1F10
:1053D00008A2FF1F489FFF1F209DFF1FDC94FF1F97
:1053E00034A0FF1F2C95FF1FECA2FF1FEC94FF1FA2
:1053F000A49FFF1F789EFF1FE8A2FF1FF8B51E1E87
:1054000003680446CCBF02EB420500250F469B68AB
:10541000D8BF164698477A19236862605B690A4AC2
:105420006661934201D12046F8BD20469847002886
:10543000F9D0064A064B516893FBF0F0884238BF1A
:10544000084650602046F8BD710400005CA4FF1FB0
:1054500040420F0070B40F4C2268531C8A4283B044
:10546000236013DB0C4D0D4A2968019101992D68C9
:1054700000951668009D15604FF47A720025891B0F
:1054800002FB03F32560B3FBF1F3438003B070BC70
:10549000704700BF70A4FF1F80A4FF1F78A4FF1FE8
:1054A0002DE9F04F43682D4C83B006468946002B0A
:1054B0004BD100F025FBF36820601BB14846B16872
:1054C00098478146264B1C680025002C36D07388EF
:1054D000A77C61686269632B236898BFA574D3F8C1
:1054E00004808DF804508DF805508DF80650B9F100
:1054F000000F1CD004F10B030DF1040E04F10E0C8F
:1055000013F801BFBBF1000F0DD093F803A00AF10F
:1055100001000BFB0000BAF1000F04D009FB00F002
:10552000000C8EF8000063450EF1010EE8D1204614
:1055300001ABC047A774A468002CC8D1304619211C
:10554000FFF788FF03B0BDE8F08F00F0D9FA2268BA
:105550007368801A9842AAD3ABE700BF74A4FF1FF8
:105560006CA4FF1F00207047044B0022FF204FF067
:10557000FF31187099605A80DA6070475CA4FF1F91
:10558000F0B4047846788278E00000F0F80000EB90
:10559000800303EB031303442506C3F307235FD4FF
:1055A00004F0400505F0FF0704F02004002D46D16B
:1055B00004F0FF00002C6CD05533DDB2AB243B4629
:1055C000FF2E1CD0002E79D01CB106FB0444C4F37E
:1055D00007241DB106FB0555C5F307251BB106FBC6
:1055E0000333C3F30723F043C0B200FB0000C0F352
:1055F0000720044405440344E4B2EDB2DBB2FF2AC1
:1056000018D012FB02F0003218BF012202EB102268
:1056100012F0FF0256D01CB102FB0444C4F307246D
:105620001DB102FB0555C5F307251BB102FB033372
:10563000C3F307230C704D708B70F0BC704704F0FF
:10564000FF075CBB00EBC00400EB440000EBC000B4
:105650000412563BC4F1AB04DDB2E4B23B46AFE703
:1056600004F0400707F0FF05E7B904F0200707F052
:10567000FF04002F36D100EBC00300EB430000EB2A
:10568000C000C0F30720C0F1AB055530EDB2C3B286
:1056900096E7DC43E4B21D46034691E70024DD4370
:1056A000EDB28DE704F0200404F0FF0594B903F196
:1056B0005504E4B2C3F1AB03DBB281E7FF231D461F
:1056C0001C469CE71546144613460C704D708B70B3
:1056D000F0BC7047A3F15604E4B20025C3F15503B2
:1056E000DBB26DE7D8431C46C3B269E7704700BF21
:1056F00010B51021044601F05FFC204610BD00BF2C
:10570000704700BF2DE9F8438946174608244FF03B
:105710000008802520260121384600F0D7F93346BD
:10572000013BFDD1484600F0D7F9002108B145EA18
:105730000808384600F0CAF93346013BFDD1013C68
:105740004FEA5505E7D14046BDE8F8832DE9F84317
:10575000044640790F4600F0BFF910B10020BDE8C3
:10576000F8832279617905462046FFF7CBFF22793D
:10577000617980462046FFF7C5FF227961790646A8
:105780002046FFF7BFFFA37981465BB10121207955
:1057900000F09CF90021207900F098F9A3790135F7
:1057A000AB42F3D8330243EA084343EA090048F323
:1057B000C01340EA03633B600120BDE8F88300BFEB
:1057C0002DE9F0410546687900F086F90446002885
:1057D000F9D12A7969792846FFF794FF2A796979FE
:1057E00007462846FFF78EFF2A796979064628463C
:1057F000FFF788FFAB7980465BB10121287900F083
:1058000065F90021287900F061F9AB790134A342F0
:10581000F3D8300240EA074040EA080047F3C017D7
:1058200040EA0760BDE8F081402910B5044612D077
:1058300080290DD0202908D02079002100F046F9D8
:105840002046BDE81040FFF7BBBF02238371F3E79A
:1058500001238371F0E703238371EDE738B5044634
:1058600041710271012110461D4600F043F9607933
:10587000002100F03FF929462046BDE83840FFF7F7
:10588000D3BF00BF70B5064E06604FF07E550026B0
:1058900004468660C560FFF7E1FF204670BD00BF8B
:1058A000208E0000034B82B01B680193019802B068
:1058B000704700BF80A4FF1F054B06481B6882B0DD
:1058C0000193019BA0FB0330800902B0704700BF29
:1058D00080A4FF1FD34D6210012910B504460ED0DD
:1058E000022909D0074B836098470022012384E8EE
:1058F00005002373204610BD034B8360F4E7034B80
:105900008360F1E7A5580000B9580000015B000072
:1059100038B5836804460D469847012384E8210082
:10592000237338BD007B704770B50446007B666802
:105930000D4628B9304485428CBF0020012070BD3F
:10594000A36898472368C01AF4E700BF08B5104C55
:1059500008E0236859050DD423681A050FD423687D
:10596000DB0411D423685803F3D500F061FA2368EF
:105970005905F1D500F00EF823681A05EFD500F0AF
:1059800009F82368DB04EDD500F004F8EAE700BF6E
:105990003480044008B5FFF7D9FF00BF014B102247
:1059A0001A80704700200540704700BF094908B5BC
:1059B0000B6830B16A461844A2F58052904202D278
:1059C0000860184608BD01F09BFF0C2303604FF0F0
:1059D000FF3008BD9087FF1F0078B0FA80F04009C3
:1059E000704700BF01230370704700BF10B40F4B16
:1059F00053F8302092F880422CB1012369B182F82B
:105A0000803010BC704703EBC0035B681A6841B973
:105A100022F002021A6010BC704782F8003110BCFC
:105A2000704742F003021A6010BC7047288E0000D5
:105A30001C4A02EBC00301295B6811D004291BD06A
:105A400052F83000002280F8802229B1022920D0AB
:105A5000032922D01A6070474FF480721A60704791
:105A600052F830004FF4A27280F880121A601A685F
:105A700022F020021A60704752F830104FF4A272E0
:105A8000012081F880021A601A6842F020021A6030
:105A9000704740F203121A6070474FF481721A6027
:105AA000704700BF288E000030B4054B054D064CF2
:105AB000002210211A602A602060196030BC7047F3
:105AC00014D0034004D0034000D00340212801D863
:105AD000FFF78CBF704700BF212806D8044B53F84E
